:100000000C942A000C94880B0C94B40B0C94C40B25
:100010000C943F000C943F000C943F000C943F0064
:100020000C943F000C943F000C9469060C949506C8
:100030000C943F000C943F000C943F000C943F0044
:100040000C943F000C943F000C943F000C943F0034
:100050000C943F0011241FBECFE5D8E0DEBFCDBF1A
:1000600010E0A0E6B0E0E8EFF2E202C005900D92E9
:10007000A237B107D9F70E942E110C947A110C9473
:100080000000EF92FF920F931F937B018C0120E001
:1000900030E040E05FE40E94110388238CF0C80147
:1000A000B70120E030E040E05FE40E94B9010E9427
:1000B00041039B01AC01205030404040504806C0F5
:1000C000C801B7010E9441039B01AC01B901CA01FB
:1000D0001F910F91FF90EF900895A0E0B0E0E3E74B
:1000E000F0E00C944311DC012B01FA019C91923059
:1000F00008F439C1EB018881823008F433C19430AF
:1001000069F4843009F02FC111969C91119789816F
:10011000981709F428C1A0E6B0E025C1843009F49D
:1001200021C18230A9F4923009F01DC19A01AD01BC
:1001300088E0EA010990AE01E90109929E0181502F
:10014000C1F7E201898111969C918923818308C1BD
:10015000923009F407C112962D903C901397EB0151
:100160008A819B811496AD90BD90CD90DC901797BD
:10017000EC80FD800E811F819101281B390BB90194
:1001800037FF04C066277727621B730B6032710547
:100190000CF061C0121613066CF537014801062EEB
:1001A00004C096948794779467940A94D2F721E0D8
:1001B00030E040E050E004C0220F331F441F551FC1
:1001C0006A95D2F721503040404050402E213F21C7
:1001D00040235123211531054105510521F021E02E
:1001E00030E040E050E079018A01E628F72808294C
:1001F00019293CC0232BD1F1260E371E35014601AB
:10020000062E04C096948794779467940A94D2F744
:1002100021E030E040E050E004C0220F331F441FD3
:10022000551F6A95D2F721503040404050402A2156
:100230003B214C215D21211531054105510521F05E
:1002400021E030E040E050E059016A01A628B728DB
:10025000C828D9280BC0821593052CF01C01AA24AC
:10026000BB24650103C0EE24FF24870111969C91F5
:10027000D20111968C91981709F445C0992339F051
:10028000A80197012A193B094C095D0906C0A6017E
:1002900095012E193F09400B510B57FD08C01182E3
:1002A0003382228224833583468357831DC081E0B5
:1002B00081833382228288279927DC01821B930B5A
:1002C000A40BB50B84839583A683B7830DC0220F3F
:1002D000331F441F551F24833583468357838281F0
:1002E000938101979383828324813581468157814D
:1002F000DA01C9010197A109B1098F5F9F4FAF4F83
:10030000BF4328F30BC0918333822282EA0CFB1C8B
:100310000C1D1D1DE482F5820683178383E0808314
:10032000248135814681578157FF1AC0C901AA2708
:1003300097FDA095BA2F81709070A070B0705695FF
:10034000479537952795822B932BA42BB52B848328
:100350009583A683B7838281938101969383828359
:10036000DF0101C0D201CD01CDB7DEB7E2E10C94CF
:100370005F11A0E2B0E0EFEBF1E00C944F11698364
:100380007A838B839C832D833E834F835887E9E058
:10039000EE2EF12CEC0EFD1ECE010196B7010E944F
:1003A0006A048E010F5E1F4FCE010596B8010E94B0
:1003B0006A048A8991E089278A8BC701B801AE0156
:1003C000475E5F4F0E946D000E949503A096E6E095
:1003D0000C946B11A0E2B0E0E0EFF1E00C944F114F
:1003E00069837A838B839C832D833E834F835887D5
:1003F000F9E0EF2EF12CEC0EFD1ECE010196B701B7
:100400000E946A048E010F5E1F4FCE010596B8014F
:100410000E946A04C701B801AE01475E5F4F0E94A7
:100420006D000E949503A096E6E00C946B11A0E28B
:10043000B0E0EDE1F2E00C94431169837A838B83A1
:100440009C832D833E834F835887CE010196BE0146
:10045000675F7F4F0E946A04CE010596BE016F5E02
:100460007F4F0E946A049985923088F08989823092
:10047000C8F0943019F4823051F404C0843029F467
:10048000923081F480E690E0C6C0923049F420E0DA
:100490009A858A89981321E02A87CE010996BBC0E4
:1004A000823049F420E09A858A89981321E02A8BCA
:1004B000CE014196B0C02D843E844F8458886D880B
:1004C0007E888F88988CEE24FF248701AA24BB2481
:1004D000650140E050E060E070E0E0E0F0E0C10184
:1004E00081709070892BE9F0E60CF71C081D191D2E
:1004F0009A01AB012A0D3B1D4C1D5D1D80E090E073
:10050000A0E0B0E0E614F7040805190520F481E046
:1005100090E0A0E0B0E0BA01A901480F591F6A1F9E
:100520007B1FAA0CBB1CCC1CDD1C97FE08C081E005
:1005300090E0A0E0B0E0A82AB92ACA2ADB2A3196C6
:10054000E032F10549F0660C771C881C991C569422
:10055000479437942794C3CFFA85EA892B893C893D
:100560008B859C85280F391F2E5F3F4F17C0CA010E
:1005700081709070892B61F016950795F794E79438
:1005800080E090E0A0E0B0E8E82AF92A0A2B1B2BD3
:1005900076956795579547952F5F3F4F77FDE7CF46
:1005A0000CC0440F551F661F771F17FD4160EE0CEE
:1005B000FF1C001F111F21503040403090E05907B0
:1005C00090E0690790E4790760F32B8F3C8FDB01A3
:1005D000CA018F779070A070B07080349105A1052A
:1005E000B10561F447FD0AC0E114F10401051105EC
:1005F00029F0405C5F4F6F4F7F4F40781A8EFE1797
:1006000011F081E08A8F4D8F5E8F6F8F78A383E02A
:10061000898FCE0149960E949503A096E2E10C9441
:100620005F11A8E1B0E0E7E1F3E00C944F116983BA
:100630007A838B839C832D833E834F83588789E005
:10064000E82EF12CEC0EFD1ECE010196B7010E94A2
:100650006A048E010F5E1F4FCE010596B8010E94FD
:100660006A048985823040F08989823028F0C70188
:10067000B8010E94E20401C08FEF6896E6E00C9496
:100680006B11ACE0B0E0E7E4F3E00C945311698344
:100690007A838B839C83CE010196BE016B5F7F4F73
:1006A0000E946A048D81823061F1823050F1843081
:1006B00021F48E81882351F12EC02F81388537FD9A
:1006C00020C06E812F3131051CF06623F9F023C064
:1006D0008EE190E0821B930B29853A854B855C85E2
:1006E00004C056954795379527958A95D2F7662386
:1006F000B1F050954095309521953F4F4F4F5F4F4A
:100700000EC020E030E040E050E009C02FEF3FEFA6
:100710004FEF5FE704C020E030E040E050E8B9016F
:10072000CA012C96E2E00C946F11DF92EF92FF92D7
:100730000F931F93FC01E480F58006811781D1801F
:100740008081823048F480E090E0A0E1B0E0E82AC7
:10075000F92A0A2B1B2BA5C0843009F49FC08230D4
:1007600021F4EE24FF24870105C0E114F104010502
:10077000110519F4E0E0F0E096C0628173819FEF0B
:10078000623879070CF05BC022E83FEF261B370B7D
:100790002A3131052CF020E030E040E050E02AC062
:1007A000B801A701022E04C0769567955795479525
:1007B0000A94D2F781E090E0A0E0B0E004C0880F96
:1007C000991FAA1FBB1F2A95D2F70197A109B1094A
:1007D0008E219F21A023B1230097A105B10521F00F
:1007E00081E090E0A0E0B0E09A01AB01282B392B2A
:1007F0004A2B5B2BDA01C9018F779070A070B07023
:1008000080349105A105B10539F427FF09C0205CAA
:100810003F4F4F4F5F4F04C0215C3F4F4F4F5F4FE3
:10082000E0E0F0E02030A0E03A07A0E04A07A0E4D2
:100830005A0710F0E1E0F0E079018A0127C0603842
:10084000710564F5FB01E158FF4FD801C7018F77AF
:100850009070A070B07080349105A105B10539F495
:10086000E7FE0DC080E490E0A0E0B0E004C08FE3BC
:1008700090E0A0E0B0E0E80EF91E0A1F1B1F17FF72
:1008800005C016950795F794E794319687E016957D
:100890000795F794E7948A95D1F705C0EE24FF24D5
:1008A0008701EFEFF0E06E2F679566276795902F31
:1008B0009F77D794DD24D7948E2F8695492F462B8A
:1008C000582F5D29B701CA011F910F91FF90EF903A
:1008D000DF900895FC01DB01408151812281622F6C
:1008E0006F7770E0221F2227221F9381892F880FA4
:1008F000822B282F30E0991F9927991F11969C93DE
:10090000119721153105A9F54115510561057105AD
:1009100011F482E037C082E89FEF13969C938E9388
:1009200012979A01AB0167E0220F331F441F551F36
:100930006A95D1F783E08C930DC0220F331F441FBB
:10094000551F12968D919C911397019713969C9326
:100950008E931297203080E0380780E0480780E4CB
:10096000580758F314962D933D934D935C93179726
:1009700008952F3F310579F4411551056105710541
:1009800019F484E08C93089564FF03C081E08C9394
:1009900012C01C9210C02F57304013963C932E93D8
:1009A000129783E08C9387E0440F551F661F771FD3
:1009B0008A95D1F7706414964D935D936D937C93F3
:1009C000179708951F93DC01FB019C91923008F466
:1009D00047C08081823008F443C0943051F41196AE
:1009E0001C91843099F58181682F70E0611B710939
:1009F0003FC0843021F0923031F48230B9F18181EE
:100A0000882389F12DC011961C9111978230F1F045
:100A100081811817D9F412962D913C9113978281F8
:100A200093818217930794F028173907BCF0149626
:100A30008D919D910D90BC91A02D24813581468191
:100A40005781281739074A075B0718F4112341F02B
:100A50000AC082179307A407B50740F4112319F0C1
:100A600061E070E005C06FEF7FEF02C060E070E012
:100A7000CB011F910895DF93CF93CDB7DEB7A1E4EB
:100A8000B0E0E1E4F0E0808186608C93CF91DF916B
:100A90000895DF93CF93CDB7DEB7A1E4B0E0E1E4F2
:100AA000F0E0808188608C93CF91DF910895DF938F
:100AB000CF930F92CDB7DEB7198289818660898383
:100AC000A1E4B0E0E1E4F0E09081898189238C9396
:100AD0000F90CF91DF910895DF93CF9300D0CDB7E2
:100AE000DEB79A838983E0E4F0E089819A81892FD7
:100AF00099278083E9E2F0E089818083EAE2F0E0EF
:100B000088E18083E0E4F0E08EE880830F900F902E
:100B1000CF91DF910895DF93CF930F92CDB7DEB7DA
:100B20008983EBE2F0E08081882F90E08072907002
:100B30000097B9F3ECE2F0E08981882F90E091838F
:100B400080830F90CF91DF910895DF93CF93CDB73E
:100B5000DEB7EBE2F0E080818823DCF7ECE2F0E046
:100B600080819181CF91DF910895DF93CF930F9290
:100B7000CDB7DEB7A3E5B0E0E3E5F0E080818F7BA1
:100B80008C93A3E5B0E0E3E5F0E08081877F8C9370
:100B9000E2E5F0E01082A9E5B0E0E9E5F0E080816F
:100BA00081608C93E3E5F0E08081E3E5F0E083E0B1
:100BB00080830F90CF91DF910895DF93CF930F92B1
:100BC000CDB7DEB7A3E5B0E0E3E5F0E080818F7B51
:100BD0008C93A3E5B0E0E3E5F0E0808188608C933E
:100BE000ECE5F0E088EC8083A9E5B0E0E9E5F0E031
:100BF000808182608C93E3E5F0E08081E3E5F0E0C2
:100C000083E080830F90CF91DF910895DF93CF939E
:100C1000CDB7DEB7A3E5B0E0E3E5F0E08081806426
:100C20008C93A3E5B0E0E3E5F0E0808188608C93ED
:100C3000E2E5F0E01082A9E5B0E0E9E5F0E08081CE
:100C400082608C93A9E5B0E0E9E5F0E08081816005
:100C50008C93CF91DF9108950F931F93DF93CF93E0
:100C600000D000D0CDB7DEB769837A838B839C83B5
:100C70000CE510E069817A818B819C8120E030E075
:100C800040E853E40E941702DC01CB01BC01CD0116
:100C900020E030E040E85FE30E94B901DC01CB01D5
:100CA000BC01CD010E944100DC01CB01F801808331
:100CB000A3E5B0E0E3E5F0E08081887F83608C937A
:100CC0000F900F900F900F90CF91DF911F910F9188
:100CD00008951F920F920FB60F9211242F933F93F6
:100CE0004F935F936F937F938F939F93AF93BF9334
:100CF000EF93FF93DF93CF93CDB7DEB780E060E053
:100D00000E94E40DCF91DF91FF91EF91BF91AF91E0
:100D10009F918F917F916F915F914F913F912F9113
:100D20000F900FBE0F901F9018951F920F920FB645
:100D30000F9211242F933F934F935F936F937F9361
:100D40008F939F93AF93BF93EF93FF93DF93CF93D3
:100D5000CDB7DEB780E060E00E94E40DCF91DF9177
:100D6000FF91EF91BF91AF919F918F917F916F9183
:100D70005F914F913F912F910F900FBE0F901F9059
:100D80001895DF93CF93CDB7DEB781E065E041E002
:100D90000E94D40B81E066E040E00E94D40B81E029
:100DA00064E041E00E94D40B81E067E041E00E94F2
:100DB000D40B81E064E041E00E94DC0CADE2B0E0E5
:100DC000EDE2F0E0808180648C93ADE2B0E0EDE292
:100DD000F0E0808180618C932DE230E0ADE2B0E004
:100DE000EDE2F0E0808181608C938C91F901808349
:100DF000CF91DF910895DF93CF930F92CDB7DEB7F8
:100E0000898381E064E040E00E94DC0CEFE2F0E0E6
:100E100089818083EEE2F0E080818823DCF7EFE2D5
:100E2000F0E08081898381E064E041E00E94DC0C95
:100E30000F90CF91DF910895DF93CF93CDB7DEB7B9
:100E4000EFE2F0E08FEF8083EEE2F0E08081882334
:100E5000DCF7EFE2F0E08081CF91DF910895DF933E
:100E6000CF93CDB7DEB781E065E040E00E94D40BC0
:100E700081E066E041E00E94D40B81E064E040E064
:100E80000E94D40B81E067E040E00E94D40BADE209
:100E9000B0E0EDE2F0E0808180648C93CF91DF914F
:100EA0000895DF93CF930F92CDB7DEB78983EFE23A
:100EB000F0E089818083EEE2F0E080818823DCF736
:100EC000EFE2F0E0808189830F90CF91DF91089568
:100ED000DF93CF93CDB7DEB7EFE2F0E08FEF808303
:100EE000EEE2F0E080818823DCF7EFE2F0E0808141
:100EF000CF91DF910895DF93CF930F92CDB7DEB7F7
:100F00008983E0E2F0E01082E1E2F0E01082E2E2C8
:100F1000F0E0898180830F90CF91DF910895DF9376
:100F2000CF930F92CDB7DEB7E6E5F0E084EA808399
:100F3000E6E5F0E080818823DCF7E1E2F0E0808103
:100F4000882F90E0887F90708830910519F081E0BB
:100F5000898301C0198289810F90CF91DF91089513
:100F6000DF93CF9300D0CDB7DEB78983E3E2F0E023
:100F700089818083E6E5F0E084E88083E6E5F0E0BF
:100F800080818823DCF7E1E2F0E08081882F90E027
:100F9000887F90708831910519F082E08A8301C0C2
:100FA0001A828A810F900F90CF91DF910895DF937D
:100FB000CF9300D0CDB7DEB78983E3E2F0E089813B
:100FC0008F5F8083E6E5F0E084E88083E6E5F0E08B
:100FD00080818823DCF7E1E2F0E08081882F90E0D7
:100FE000887F90708034910561F0E1E2F0E08081CB
:100FF000982F987F80E0692F0E94DA0E82E08A8322
:1010000001C01A828A810F900F90CF91DF910895CD
:10101000DF93CF9300D0CDB7DEB78983E3E2F0E072
:1010200089818083E6E5F0E084E88083E6E5F0E00E
:1010300080818823DCF7E1E2F0E08081882F90E076
:10104000887F90708832910519F083E08A8301C00F
:101050001A828A810F900F90CF91DF910895DF93CC
:10106000CF930F92CDB7DEB7E6E5F0E084E880835A
:10107000E6E5F0E080818823DCF7E1E2F0E08081C2
:10108000882F90E0887F90708033910519F083E07D
:10109000898301C0198289810F90CF91DF910895D2
:1010A000DF93CF930F92CDB7DEB7E6E5F0E084E8AB
:1010B0008083E6E5F0E080818823DCF7E1E2F0E080
:1010C0008081882F90E0887F90708835910519F095
:1010D00083E0898304C0E3E2F0E080818983898131
:1010E0000F90CF91DF910895DF93CF930F92CDB7FB
:1010F000DEB7E6E5F0E084EA8083E6E5F0E08081B3
:101100008823DCF7E1E2F0E08081882F90E0887F9F
:1011100090708031910519F084E0898301C01982B3
:1011200089810F90CF91DF910895DF93CF93CDB751
:10113000DEB7E6E5F0E084E98083CF91DF910895A2
:10114000DF93CF9300D00F92CDB7DEB789836A8348
:101150000E948F07882329F00E94950881E08B83E5
:1011600017C089810E94B007882329F00E94950842
:1011700082E08B830DC08A810E940808882329F0B1
:101180000E94950883E08B8303C00E9495081B8210
:101190008B810F900F900F90CF91DF910895DF9387
:1011A000CF9300D000D00F92CDB7DEB78A837C8377
:1011B0006B830E948F07882329F00E94950881E0A5
:1011C0008D831CC08A810E94D707882329F00E9442
:1011D000950882E08D8312C00E945008898389811E
:1011E000882329F00E94950885E08D8307C0EB8154
:1011F000FC81898180830E9495081D828D810F90DA
:101200000F900F900F900F90CF91DF910895DF9383
:10121000CF9300D000D000D0CDB7DEB78A836B83E8
:101220005D834C830E948F07882329F00E949508D4
:1012300081E08E8339C08A810E94B007882329F01B
:101240000E94950882E08E832FC08B810E9408083F
:10125000882329F00E94950883E08E8325C00E9490
:101260007408882329F00E94950884E08E831CC0AE
:101270008A810E94D707882329F00E94950882E07E
:101280008E8312C00E94500889838981882329F0A7
:101290000E94950885E08E8307C0EC81FD818981DD
:1012A00080830E9495081E828E8126960FB6F89440
:1012B000DEBF0FBECDBFCF91DF910895DF93CF93F7
:1012C0000F92CDB7DEB78983E2E2F0E089818083B7
:1012D000E6E5F0E084E480830F90CF91DF910895FC
:1012E000DF93CF930F92CDB7DEB78983E6E5F0E0C9
:1012F00084E48083E6E5F0E080818823DCF7E6E59E
:10130000F0E084E48083E6E5F0E080818823DCF788
:10131000E3E2F0E0898180830F90CF91DF9108951F
:10132000DF93CF93CDB7DEB7A6E5B0E0E6E5F0E01A
:10133000808180688C93E6E5F0E080818823DCF78B
:10134000A6E5B0E0E6E5F0E0808180688C93E6E514
:10135000F0E080818823DCF7E3E2F0E08081CF9148
:10136000DF910895DF93CF93CDB7DEB7AFE5B0E05F
:10137000EFE5F0E0808180688C93CF91DF91089554
:10138000DF93CF93CDB7DEB7AFE5B0E0EFE5F0E0A8
:1013900080818F778C93CF91DF910895DF93CF93E6
:1013A000CDB7DEB7A5E5B0E0E5E5F0E080818E7F62
:1013B0008C93A5E5B0E0E5E5F0E080818D7F8C932E
:1013C0000E94520A83E062E040E00E94D40B83E076
:1013D00062E041E00E94DC0CCF91DF910895DF9341
:1013E000CF93CDB7DEB7A5E5B0E0E5E5F0E08081CD
:1013F0008E7F8C93A5E5B0E0E5E5F0E0808182602A
:101400008C930E94520A83E062E040E00E94D40B79
:1014100083E062E041E00E94DC0CCF91DF9108950F
:10142000DF93CF93CDB7DEB7A5E5B0E0E5E5F0E01B
:10143000808181608C93A5E5B0E0E5E5F0E08081F6
:1014400082608C930E94520A83E062E040E00E9436
:10145000D40B83E062E041E00E94DC0CCF91DF918D
:101460000895DF93CF93CDB7DEB7A5E5B0E0E5E50E
:10147000F0E0808181608C93A5E5B0E0E5E5F0E0E7
:1014800080818D7F8C930E94520A83E062E040E06D
:101490000E94D40B83E062E041E00E94DC0CCF911B
:1014A000DF910895DF93CF93CDB7DEB7ABE5B0E022
:1014B000EBE5F0E0808180648C93CF91DF9108951B
:1014C000DF93CF93CDB7DEB7ABE5B0E0EBE5F0E06F
:1014D00080818F7B8C93CF91DF910895DF93CF93A1
:1014E000CDB7DEB7ABE5B0E0EBE5F0E0808180643E
:1014F0008C93CF91DF910895DF93CF93CDB7DEB773
:10150000A5E5B0E0E5E5F0E080818B7F8C93A5E573
:10151000B0E0E5E5F0E08081877F8C930E94000BCE
:1015200083E063E040E00E94D40B83E063E041E0AD
:101530000E94DC0CCF91DF910895DF93CF93CDB75C
:10154000DEB7A5E5B0E0E5E5F0E080818B7F8C9328
:10155000A5E5B0E0E5E5F0E0808188608C930E942D
:10156000000B83E063E040E00E94D40B83E063E083
:1015700041E00E94DC0CCF91DF910895DF93CF937F
:10158000CDB7DEB7A5E5B0E0E5E5F0E080818460A9
:101590008C93A5E5B0E0E5E5F0E0808188608C9370
:1015A0000E94000B83E063E040E00E94D40B83E0E4
:1015B00063E041E00E94DC0CCF91DF910895DF935E
:1015C000CF93CDB7DEB7A5E5B0E0E5E5F0E08081EB
:1015D00084608C93A5E5B0E0E5E5F0E08081877F4D
:1015E0008C930E94000B83E063E040E00E94D40BE8
:1015F00083E063E041E00E94DC0CCF91DF9108952D
:10160000DF93CF93CDB7DEB7ABE5B0E0EBE5F0E02D
:10161000808180688C93CF91DF910895DF93CF9381
:10162000CDB7DEB7ABE5B0E0EBE5F0E080818F77DA
:101630008C93CF91DF910895DF93CF93CDB7DEB731
:10164000ABE5B0E0EBE5F0E0808180688C93CF9172
:10165000DF910895DF93CF93CDB7DEB7A4E5B0E077
:10166000E4E5F0E080818F7B8C930E945E0B81E04B
:1016700062E040E00E94D40B81E062E041E00E9421
:10168000DC0CCF91DF910895DF93CF93CDB7DEB718
:10169000A4E5B0E0E4E5F0E0808180648C930E94F2
:1016A0005E0B81E062E040E00E94D40B81E062E0EA
:1016B00041E00E94DC0CCF91DF910895DF93CF933E
:1016C000CDB7DEB7ABE5B0E0EBE5F0E0808180625E
:1016D0008C93CF91DF910895DF93CF93CDB7DEB791
:1016E000ABE5B0E0EBE5F0E080818F7D8C93CF91AE
:1016F000DF910895DF93CF93CDB7DEB7ABE5B0E0D0
:10170000EBE5F0E0808180628C93CF91DF910895CA
:101710001F920F920FB60F9211242F933F934F9366
:101720005F936F937F938F939F93AF93BF93EF9349
:10173000FF93DF93CF93CDB7DEB780E060E00E94E8
:10174000E40DCF91DF91FF91EF91BF91AF919F9108
:101750008F917F916F915F914F913F912F910F905A
:101760000FBE0F901F9018951F920F920FB60F92F9
:101770001124DF93CF93CDB7DEB7CF91DF910F90D8
:101780000FBE0F901F9018951F920F920FB60F92D9
:101790001124DF93CF93CDB7DEB7CF91DF910F90B8
:1017A0000FBE0F901F901895DF93CF93CDB7DEB784
:1017B00029970FB6F894DEBF0FBECDBF89836A8329
:1017C0004B838B81282F30E039872887888599853E
:1017D000009709F475C0288539852130310509F055
:1017E000E2C08981282F30E03F832E838E819F8144
:1017F0008130910549F12E813F81223031052CF451
:101800008E819F81009761F0CEC02E813F81223072
:10181000310571F18E819F8183309105E9F1C3C05B
:10182000AAE3B0E0EAE3F0E08081482F8A81282F24
:1018300030E081E090E0022E02C0880F991F0A94E8
:10184000E2F7842B8C93AFC0A7E3B0E0E7E3F0E0CE
:101850008081482F8A81282F30E081E090E0022E9D
:1018600002C0880F991F0A94E2F7842B8C939BC0C7
:10187000A4E3B0E0E4E3F0E08081482F8A81282FE0
:1018800030E081E090E0022E02C0880F991F0A9498
:10189000E2F7842B8C9387C0A1E3B0E0E1E3F0E0B2
:1018A0008081482F8A81282F30E081E090E0022E4D
:1018B00002C0880F991F0A94E2F7842B8C9373C09F
:1018C0008981282F30E03D832C838C819D8181305C
:1018D000910559F12C813D81223031052CF48C8108
:1018E0009D81009769F05FC02C813D8122303105D8
:1018F00089F18C819D818330910509F440C053C0EA
:10190000AAE3B0E0EAE3F0E08081482F8A81282F43
:1019100030E081E090E0022E02C0880F991F0A9407
:10192000E2F7809584238C933EC0A7E3B0E0E7E321
:10193000F0E08081482F8A81282F30E081E090E01C
:10194000022E02C0880F991F0A94E2F78095842323
:101950008C9329C0A4E3B0E0E4E3F0E08081482F59
:101960008A81282F30E081E090E0022E02C0880FAB
:10197000991F0A94E2F7809584238C9314C0A1E305
:10198000B0E0E1E3F0E08081482F8A81282F30E049
:1019900081E090E0022E02C0880F991F0A94E2F7BE
:1019A000809584238C9329960FB6F894DEBF0FBEE2
:1019B000CDBFCF91DF910895DF93CF93CDB7DEB741
:1019C00029970FB6F894DEBF0FBECDBF89836A8317
:1019D0004B838B81282F30E039872887888599852C
:1019E000009709F475C0288539852130310509F043
:1019F000E2C08981282F30E03F832E838E819F8132
:101A00008130910549F12E813F81223031052CF43E
:101A10008E819F81009761F0CEC02E813F81223060
:101A2000310571F18E819F8183309105E9F1C3C049
:101A3000ABE3B0E0EBE3F0E08081482F8A81282F10
:101A400030E081E090E0022E02C0880F991F0A94D6
:101A5000E2F7842B8C93AFC0A8E3B0E0E8E3F0E0BA
:101A60008081482F8A81282F30E081E090E0022E8B
:101A700002C0880F991F0A94E2F7842B8C939BC0B5
:101A8000A5E3B0E0E5E3F0E08081482F8A81282FCC
:101A900030E081E090E0022E02C0880F991F0A9486
:101AA000E2F7842B8C9387C0A2E3B0E0E2E3F0E09E
:101AB0008081482F8A81282F30E081E090E0022E3B
:101AC00002C0880F991F0A94E2F7842B8C9373C08D
:101AD0008981282F30E03D832C838C819D8181304A
:101AE000910559F12C813D81223031052CF48C81F6
:101AF0009D81009769F05FC02C813D8122303105C6
:101B000089F18C819D818330910509F440C053C0D7
:101B1000ABE3B0E0EBE3F0E08081482F8A81282F2F
:101B200030E081E090E0022E02C0880F991F0A94F5
:101B3000E2F7809584238C933EC0A8E3B0E0E8E30D
:101B4000F0E08081482F8A81282F30E081E090E00A
:101B5000022E02C0880F991F0A94E2F78095842311
:101B60008C9329C0A5E3B0E0E5E3F0E08081482F45
:101B70008A81282F30E081E090E0022E02C0880F99
:101B8000991F0A94E2F7809584238C9314C0A2E3F2
:101B9000B0E0E2E3F0E08081482F8A81282F30E036
:101BA00081E090E0022E02C0880F991F0A94E2F7AC
:101BB000809584238C9329960FB6F894DEBF0FBED0
:101BC000CDBFCF91DF910895DF93CF9300D000D0A8
:101BD000CDB7DEB789836A838981282F30E03C83C3
:101BE0002B838B819C818130910549F12B813C8134
:101BF000223031052CF48B819C81009761F05AC012
:101C00002B813C812230310571F18B819C818330A5
:101C10009105E9F14FC0ABE3B0E0EBE3F0E0808188
:101C2000482F8A81282F30E081E090E0022E02C008
:101C3000880F991F0A94E2F784278C933BC0A8E38E
:101C4000B0E0E8E3F0E08081482F8A81282F30E07F
:101C500081E090E0022E02C0880F991F0A94E2F7FB
:101C600084278C9327C0A5E3B0E0E5E3F0E0808112
:101C7000482F8A81282F30E081E090E0022E02C0B8
:101C8000880F991F0A94E2F784278C9313C0A2E36C
:101C9000B0E0E2E3F0E08081482F8A81282F30E035
:101CA00081E090E0022E02C0880F991F0A94E2F7AB
:101CB00084278C930F900F900F900F90CF91DF910E
:101CC0000895DF93CF9300D000D00F92CDB7DEB749
:101CD0008A836B838A81282F30E03D832C834C815B
:101CE0005D814130510541F18C819D8182309105AA
:101CF00034F42C813D812115310561F052C04C81B5
:101D00005D814230510551F18C819D818330910577
:101D1000B9F147C0E9E3F0E08081282F30E08B8102
:101D2000882F90E0A90102C0559547958A95E2F762
:101D3000CA018170898335C0E6E3F0E08081282FF5
:101D400030E08B81882F90E0A90102C0559547951E
:101D50008A95E2F7CA018170898323C0E3E3F0E04A
:101D60008081282F30E08B81882F90E0A90102C06C
:101D7000559547958A95E2F7CA018170898311C00C
:101D8000E0E3F0E08081282F30E08B81882F90E025
:101D9000A90102C0559547958A95E2F7CA0181705D
:101DA000898389810F900F900F900F900F90CF91A2
:101DB000DF910895DF93CF9300D000D0CDB7DEB789
:101DC00089836A838981282F30E03C832B838B8130
:101DD0009C8181309105D1F02B813C8122303105ED
:101DE0002CF48B819C81009761F01EC02B813C817B
:101DF0002230310581F08B819C818330910581F007
:101E000013C0EAE3F0E08A8180830EC0E7E3F0E0EC
:101E10008A81808309C0E4E3F0E08A81808304C082
:101E2000E1E3F0E08A8180830F900F900F900F9094
:101E3000CF91DF910895DF93CF9300D000D0CDB73D
:101E4000DEB789836A838981282F30E03C832B8326
:101E50008B819C8181309105D1F02B813C81223096
:101E600031052CF48B819C81009761F01EC02B8181
:101E70003C812230310581F08B819C81833091053A
:101E800081F013C0EBE3F0E08A8180830EC0E8E3C9
:101E9000F0E08A81808309C0E5E3F0E08A818083F5
:101EA00004C0E2E3F0E08A8180830F900F900F90EE
:101EB0000F90CF91DF910895DF93CF9300D00F92D1
:101EC000CDB7DEB789838981282F30E03B832A8311
:101ED0008A819B8181309105E9F02A813B81223002
:101EE00031052CF48A819B81009761F02AC02A81F8
:101EF0003B8122303105B1F08A819B81833091058D
:101F0000C9F01FC0ABE3B0E0EBE3F0E08081809567
:101F10008C9317C0A8E3B0E0E8E3F0E080818095FF
:101F20008C930FC0A5E3B0E0E5E3F0E080818095FD
:101F30008C9307C0A2E3B0E0E2E3F0E080818095FB
:101F40008C930F900F900F90CF91DF910895DF93B6
:101F5000CF9300D000D0CDB7DEB789838981282FF9
:101F600030E03C832B838B819C8181309105D1F0C3
:101F70002B813C81223031052CF48B819C81009790
:101F800061F01FC02B813C812230310581F08B81B3
:101F90009C818330910581F014C0E9E3F0E09081E9
:101FA0009A8310C0E6E3F0E020812A830BC0E3E3CC
:101FB000F0E030813A8306C0E0E3F0E080818A837C
:101FC00001C01A828A810F900F900F900F90CF91CD
:101FD000DF910895DF93CF93CDB7DEB7EBE3F0E069
:101FE0008FEF8083A7E2B0E0E7E2F0E080818064D9
:101FF0008C93A7E2B0E0E7E2F0E080818F778C93EA
:10200000A7E2B0E0E7E2F0E080818F7D8C93A6E26A
:10201000B0E0E6E2F0E0808180688C93A6E2B0E078
:10202000E6E2F0E080818C93CF91DF910895DF9319
:10203000CF930F92CDB7DEB7A7E2B0E0E7E2F0E0D2
:102040008081807E8C93A6E2B0E0E6E2F0E08081C1
:1020500080648C93E6E2F0E08081FCCFDF93CF9345
:102060000F92CDB7DEB7A7E2B0E0E7E2F0E0808103
:10207000807E81608C93A6E2B0E0E6E2F0E08081B1
:1020800080648C93E6E2F0E08081FCCFDF93CF9315
:102090000F92CDB7DEB7A7E2B0E0E7E2F0E08081D3
:1020A000807E82608C93A6E2B0E0E6E2F0E0808180
:1020B00080648C93E6E2F0E08081FCCFDF93CF93E5
:1020C0000F92CDB7DEB7A7E2B0E0E7E2F0E08081A3
:1020D000807E83608C93A6E2B0E0E6E2F0E080814F
:1020E00080648C93E6E2F0E08081FCCFDF93CF93B5
:1020F0000F92CDB7DEB7A7E2B0E0E7E2F0E0808173
:10210000807E84608C93A6E2B0E0E6E2F0E080811D
:1021100080648C93E6E2F0E08081FCCFDF93CF9384
:102120000F92CDB7DEB7A7E2B0E0E7E2F0E0808142
:10213000807E85608C93A6E2B0E0E6E2F0E08081EC
:1021400080648C93E6E2F0E08081FCCFDF93CF9354
:102150000F92CDB7DEB7A7E2B0E0E7E2F0E0808112
:10216000807E86608C93A6E2B0E0E6E2F0E08081BB
:1021700080648C93E6E2F0E08081FCCFDF93CF9324
:102180000F92CDB7DEB7A7E2B0E0E7E2F0E08081E2
:10219000807E87608C93A6E2B0E0E6E2F0E080818A
:1021A00080648C93E6E2F0E08081FCCFDF93CF93F4
:1021B000CDB7DEB7A6E2B0E0E6E2F0E08081806174
:1021C0008C93CF91DF910895DF93CF93CDB7DEB796
:1021D000A6E2B0E0E6E2F0E080818F7E8C93CF91C2
:1021E000DF910895DF93CF930F92CDB7DEB7898348
:1021F00089816FEF0E94DA0E0F90CF91DF910895E1
:10220000DF93CF9300D0CDB7DEB789836A8389810E
:102210006A810E941B0F0F900F90CF91DF9108955C
:10222000DF93CF930F92CDB7DEB78983898167E0C3
:1022300040E00E94DC0C0F90CF91DF910895DF9376
:10224000CF930F92CDB7DEB78983898167E041E0F4
:102250000E94DC0C0F90CF91DF910895DF93CF9314
:102260000F92CDB7DEB780E20E945E0980E06FEF8B
:102270000E94DA0E19820E949009898380E06981A8
:102280000E941B0FF7CF2F923F924F925F926F9257
:102290007F928F929F92AF92BF92CF92DF92EF92F6
:1022A000FF920F931F93CF93DF93CDB7DEB7CA1B77
:1022B000DB0B0FB6F894DEBF0FBECDBF09942A88A2
:1022C000398848885F846E847D848C849B84AA844A
:1022D000B984C884DF80EE80FD800C811B81AA81D7
:1022E000B981CE0FD11D0FB6F894DEBF0FBECDBFA2
:0822F000ED010895F894FFCF01
:1022F80000000000000000003F065B4F666D7D0790
:022308007F6FE5
:00000001FF
